{
  "contractName": "DonationContract",
  "abi": [
    {
      "inputs": [],
      "stateMutability": "nonpayable",
      "type": "constructor"
    },
    {
      "inputs": [
        {
          "internalType": "uint256",
          "name": "",
          "type": "uint256"
        }
      ],
      "name": "allDonations",
      "outputs": [
        {
          "internalType": "uint256",
          "name": "numberOfRecipients",
          "type": "uint256"
        },
        {
          "internalType": "uint256",
          "name": "donationTotal",
          "type": "uint256"
        },
        {
          "internalType": "address",
          "name": "donorAddress",
          "type": "address"
        },
        {
          "internalType": "bool",
          "name": "active",
          "type": "bool"
        }
      ],
      "stateMutability": "view",
      "type": "function",
      "constant": true
    },
    {
      "inputs": [
        {
          "internalType": "uint256",
          "name": "_donationId",
          "type": "uint256"
        },
        {
          "internalType": "address payable[]",
          "name": "_recipientAddresses",
          "type": "address[]"
        },
        {
          "internalType": "uint256",
          "name": "_numberOfRecipients",
          "type": "uint256"
        }
      ],
      "name": "createDonation",
      "outputs": [],
      "stateMutability": "payable",
      "type": "function",
      "payable": true
    },
    {
      "inputs": [
        {
          "internalType": "uint256",
          "name": "_donationId",
          "type": "uint256"
        },
        {
          "internalType": "address payable",
          "name": "_recipient",
          "type": "address"
        }
      ],
      "name": "claimDonation",
      "outputs": [],
      "stateMutability": "nonpayable",
      "type": "function"
    },
    {
      "inputs": [],
      "name": "balanceOfContract",
      "outputs": [
        {
          "internalType": "uint256",
          "name": "",
          "type": "uint256"
        }
      ],
      "stateMutability": "view",
      "type": "function",
      "constant": true
    }
  ],
  "bytecode": "0x608060405234801561001057600080fd5b5061096e806100206000396000f3fe60806040526004361061003f5760003560e01c806306c49713146100445780639c9810ad14610084578063dfab56d0146100a0578063e6c7c456146100c9575b600080fd5b34801561005057600080fd5b5061006b60048036038101906100669190610574565b6100f4565b60405161007b949392919061076e565b60405180910390f35b61009e600480360381019061009991906105d9565b610151565b005b3480156100ac57600080fd5b506100c760048036038101906100c2919061059d565b610162565b005b3480156100d557600080fd5b506100de61035d565b6040516100eb9190610753565b60405180910390f35b60006020528060005260406000206000915090508060020154908060030154908060040160009054906101000a900473ffffffffffffffffffffffffffffffffffffffff16908060040160149054906101000a900460ff16905084565b61015d83338484610365565b505050565b8160008082815260200190815260200160002060040160149054906101000a900460ff166101c5576040517f08c379a00000000000000000000000000000000000000000000000000000000081526004016101bc90610713565b60405180910390fd5b6000151560008085815260200190815260200160002060010160008473ffffffffffffffffffffffffffffffffffffffff1673ffffffffffffffffffffffffffffffffffffffff16815260200190815260200160002060009054906101000a900460ff1615151461026b576040517f08c379a000000000000000000000000000000000000000000000000000000000815260040161026290610733565b60405180910390fd5b600080600085815260200190815260200160002060020154600080868152602001908152602001600020600301546102a39190610821565b90508273ffffffffffffffffffffffffffffffffffffffff166108fc829081150290604051600060405180830381858888f193505050501580156102eb573d6000803e3d6000fd5b50600160008086815260200190815260200160002060010160008573ffffffffffffffffffffffffffffffffffffffff1673ffffffffffffffffffffffffffffffffffffffff16815260200190815260200160002060006101000a81548160ff02191690831515021790555050505050565b600047905090565b600080600086815260200190815260200160002090508281600001908051906020019061039392919061040d565b50818160020181905550348160030181905550838160040160006101000a81548173ffffffffffffffffffffffffffffffffffffffff021916908373ffffffffffffffffffffffffffffffffffffffff16021790555060018160040160146101000a81548160ff0219169083151502179055505050505050565b828054828255906000526020600020908101928215610486579160200282015b828111156104855782518260006101000a81548173ffffffffffffffffffffffffffffffffffffffff021916908373ffffffffffffffffffffffffffffffffffffffff1602179055509160200191906001019061042d565b5b5090506104939190610497565b5090565b5b808211156104b0576000816000905550600101610498565b5090565b60006104c76104c2846107e4565b6107b3565b905080838252602082019050828560208602820111156104e657600080fd5b60005b8581101561051657816104fc8882610520565b8452602084019350602083019250506001810190506104e9565b5050509392505050565b60008135905061052f8161090a565b92915050565b600082601f83011261054657600080fd5b81356105568482602086016104b4565b91505092915050565b60008135905061056e81610921565b92915050565b60006020828403121561058657600080fd5b60006105948482850161055f565b91505092915050565b600080604083850312156105b057600080fd5b60006105be8582860161055f565b92505060206105cf85828601610520565b9150509250929050565b6000806000606084860312156105ee57600080fd5b60006105fc8682870161055f565b935050602084013567ffffffffffffffff81111561061957600080fd5b61062586828701610535565b92505060406106368682870161055f565b9150509250925092565b61064981610852565b82525050565b61065881610876565b82525050565b600061066b601683610810565b91507f646f6e6174696f6e206973206e6f7420616374697665000000000000000000006000830152602082019050919050565b60006106ab602b83610810565b91507f7468697320757365722068617320616c726561647920636c61696d656420746860008301527f697320646f6e6174696f6e0000000000000000000000000000000000000000006020830152604082019050919050565b61070d816108a2565b82525050565b6000602082019050818103600083015261072c8161065e565b9050919050565b6000602082019050818103600083015261074c8161069e565b9050919050565b60006020820190506107686000830184610704565b92915050565b60006080820190506107836000830187610704565b6107906020830186610704565b61079d6040830185610640565b6107aa606083018461064f565b95945050505050565b6000604051905081810181811067ffffffffffffffff821117156107da576107d96108db565b5b8060405250919050565b600067ffffffffffffffff8211156107ff576107fe6108db565b5b602082029050602081019050919050565b600082825260208201905092915050565b600061082c826108a2565b9150610837836108a2565b925082610847576108466108ac565b5b828204905092915050565b600061085d82610882565b9050919050565b600061086f82610882565b9050919050565b60008115159050919050565b600073ffffffffffffffffffffffffffffffffffffffff82169050919050565b6000819050919050565b7f4e487b7100000000000000000000000000000000000000000000000000000000600052601260045260246000fd5b7f4e487b7100000000000000000000000000000000000000000000000000000000600052604160045260246000fd5b61091381610864565b811461091e57600080fd5b50565b61092a816108a2565b811461093557600080fd5b5056fea26469706673582212205840b95065b35357a37c1198df91d568655d17dabec7d7b7c40cfa256a1ebbb764736f6c63430008000033",
  "immutableReferences": {},
  "source": "// SPDX-License-Identifier: MIT\npragma solidity ^0.8.0;\n\ncontract DonationContract {\n  constructor() {\n  }\n  // Structs are like models objects. A new struct is made for each donation instance\n  struct Donation {\n      address payable[] recipientAddresses;\n      mapping (address => bool) claimsList;\n    //   address[] alreadyClaimed;\n      uint numberOfRecipients;\n      uint donationTotal;\n      address donorAddress;\n      bool active;\n  }\n\n  mapping(uint => Donation) public allDonations;\n\n  function createDonation(uint _donationId, address payable[] memory _recipientAddresses, uint _numberOfRecipients) public payable  {\n      createDonationStruct(_donationId, msg.sender, _recipientAddresses, _numberOfRecipients);\n  }\n\n  function createDonationStruct(uint _donationId, address _donatorAddress, address payable[] memory _recipientAddresses, uint _numberOfRecipients) internal {\n        Donation storage newDonation = allDonations[_donationId];\n        newDonation.recipientAddresses = _recipientAddresses;\n        //   alreadyClaimed: new address[](_numberOfRecipients), // creates array of addresses for those who claimed donation to prevent double dipping\n        newDonation.numberOfRecipients = _numberOfRecipients;\n        newDonation.donationTotal = msg.value;\n        newDonation.donorAddress = _donatorAddress;\n        newDonation.active = true;\n  }\n\n  function claimDonation(uint _donationId, address payable _recipient) public isDonationActive(_donationId) {\n      // if recipient address is in donation recipient list, and they havent already claimed money, transfer money to them\n      // subtract from total in donation\n      require(allDonations[_donationId].claimsList[_recipient] == false, \"this user has already claimed this donation\");\n      uint amount = allDonations[_donationId].donationTotal / allDonations[_donationId].numberOfRecipients;\n      _recipient.transfer(amount);\n      allDonations[_donationId].claimsList[_recipient] = true;\n  }\n\n  function balanceOfContract() external view returns(uint) {\n       return address(this).balance;\n  }\n\n  // does donation exist?\n  modifier isDonationActive (uint _donationId) {\n      require(allDonations[_donationId].active, 'donation is not active');\n      _;\n  }\n}\n",
  "sourcePath": "/Users/emilyasaro/Senior-Phase/capstone-repo/contracts/DonationContract.sol",
  "compiler": {
    "name": "solc",
    "version": "0.8.0+commit.c7dfd78e.Emscripten.clang"
  },
  "schemaVersion": "3.4.1",
  "updatedAt": "2021-06-22T02:36:09.614Z",
  "networkType": "ethereum",
  "devdoc": {
    "kind": "dev",
    "methods": {},
    "version": 1
  },
  "userdoc": {
    "kind": "user",
    "methods": {},
    "version": 1
  }
}