{
  "contractName": "Escrow",
  "abi": [
    {
      "constant": true,
      "inputs": [],
      "name": "donor",
      "outputs": [
        {
          "name": "",
          "type": "address"
        }
      ],
      "payable": false,
      "stateMutability": "view",
      "type": "function"
    },
    {
      "constant": true,
      "inputs": [],
      "name": "recipient",
      "outputs": [
        {
          "name": "",
          "type": "address"
        }
      ],
      "payable": false,
      "stateMutability": "view",
      "type": "function"
    },
    {
      "constant": true,
      "inputs": [],
      "name": "currState",
      "outputs": [
        {
          "name": "",
          "type": "uint8"
        }
      ],
      "payable": false,
      "stateMutability": "view",
      "type": "function"
    },
    {
      "inputs": [
        {
          "name": "_donor",
          "type": "address"
        },
        {
          "name": "_recipient",
          "type": "address"
        }
      ],
      "payable": false,
      "stateMutability": "nonpayable",
      "type": "constructor"
    },
    {
      "constant": false,
      "inputs": [],
      "name": "deposit",
      "outputs": [],
      "payable": true,
      "stateMutability": "payable",
      "type": "function"
    },
    {
      "constant": false,
      "inputs": [],
      "name": "confirmation",
      "outputs": [],
      "payable": false,
      "stateMutability": "nonpayable",
      "type": "function"
    }
  ],
  "bytecode": "0x608060405234801561001057600080fd5b506040516040806106688339810180604052604081101561003057600080fd5b81019080805190602001909291908051906020019092919050505081600060016101000a81548173ffffffffffffffffffffffffffffffffffffffff021916908373ffffffffffffffffffffffffffffffffffffffff16021790555080600160006101000a81548173ffffffffffffffffffffffffffffffffffffffff021916908373ffffffffffffffffffffffffffffffffffffffff160217905550505061058a806100de6000396000f3fe608060405260043610610067576000357c01000000000000000000000000000000000000000000000000000000009004806325223bd41461006c57806366d003ac146100c35780637eef61771461011a578063afe0104314610131578063d0e30db01461016a575b600080fd5b34801561007857600080fd5b50610081610174565b604051808273ffffffffffffffffffffffffffffffffffffffff1673ffffffffffffffffffffffffffffffffffffffff16815260200191505060405180910390f35b3480156100cf57600080fd5b506100d861019a565b604051808273ffffffffffffffffffffffffffffffffffffffff1673ffffffffffffffffffffffffffffffffffffffff16815260200191505060405180910390f35b34801561012657600080fd5b5061012f6101c0565b005b34801561013d57600080fd5b506101466103c6565b6040518082600281111561015657fe5b60ff16815260200191505060405180910390f35b6101726103d8565b005b600060019054906101000a900473ffffffffffffffffffffffffffffffffffffffff1681565b600160009054906101000a900473ffffffffffffffffffffffffffffffffffffffff1681565b600060019054906101000a900473ffffffffffffffffffffffffffffffffffffffff1673ffffffffffffffffffffffffffffffffffffffff163373ffffffffffffffffffffffffffffffffffffffff16141515610285576040517f08c379a000000000000000000000000000000000000000000000000000000000815260040180806020018281038252601f8152602001807f4f6e6c7920646f6e6f722063616e2063616c6c2074686973206d6574686f640081525060200191505060405180910390fd5b6001600281111561029257fe5b6000809054906101000a900460ff1660028111156102ac57fe5b141515610321576040517f08c379a000000000000000000000000000000000000000000000000000000000815260040180806020018281038252600e8152602001807f43616e6e6f7420636f6e6669726d00000000000000000000000000000000000081525060200191505060405180910390fd5b600160009054906101000a900473ffffffffffffffffffffffffffffffffffffffff1673ffffffffffffffffffffffffffffffffffffffff166108fc3073ffffffffffffffffffffffffffffffffffffffff16319081150290604051600060405180830381858888f193505050501580156103a0573d6000803e3d6000fd5b5060026000806101000a81548160ff021916908360028111156103bf57fe5b0217905550565b6000809054906101000a900460ff1681565b600060019054906101000a900473ffffffffffffffffffffffffffffffffffffffff1673ffffffffffffffffffffffffffffffffffffffff163373ffffffffffffffffffffffffffffffffffffffff1614151561049d576040517f08c379a000000000000000000000000000000000000000000000000000000000815260040180806020018281038252601f8152602001807f4f6e6c7920646f6e6f722063616e2063616c6c2074686973206d6574686f640081525060200191505060405180910390fd5b600060028111156104aa57fe5b6000809054906101000a900460ff1660028111156104c457fe5b141515610539576040517f08c379a000000000000000000000000000000000000000000000000000000000815260040180806020018281038252600c8152602001807f416c72656164792070616964000000000000000000000000000000000000000081525060200191505060405180910390fd5b60016000806101000a81548160ff0219169083600281111561055757fe5b021790555056fea165627a7a72305820d7412d6e35953e88c2f2be056d67e866a1500f7a494e307ec3daca67276e73820029",
  "source": "pragma solidity ^0.5.1;\n\n// TODO\n// run truffle compile\n// run truffle migrate\n// test on the truffle terminal\n\n\ncontract Escrow {\n    enum State { AWAITING_PAYMENT, AWAITING_CONFIRMATION, COMPLETE }\n    State public currState;\n\n    address public donor;\n    address payable public recipient;\n\n    modifier onlyDonor() {\n        require(msg.sender == donor, \"Only donor can call this method\");\n        _;\n    }\n\n    constructor(address _donor, address payable _recipient) public {\n        donor = _donor;\n        recipient = _recipient;\n    }\n\n    function deposit() onlyDonor external payable {\n        require(currState == State.AWAITING_PAYMENT, \"Already paid\");\n        currState = State.AWAITING_CONFIRMATION;\n    }\n\n    function confirmation() onlyDonor external {\n        require(currState == State.AWAITING_CONFIRMATION, \"Cannot confirm\");\n        recipient.transfer(address(this).balance);\n        currState = State.COMPLETE;\n    }\n}\n\n\n\n// pragma solidity ^0.5.1;\n\n// contract Payments {\n//   constructor() public {\n//         countDonations(10);\n//       }\n//   // state variable stored on blockchain\n//    uint public transactionCount = 0;\n\n//   struct Donation {\n//     uint id;\n//     uint donationTotal;\n//     address donorAddress;\n//     address payable recipientAddress;\n//   }\n\n//   mapping(uint => Donation) public donations;\n\n//   function countDonations(string memory donationTotal) public {\n//     uint donationTotal = 10;\n//     transactionCount ++;\n//     donations[transactionCount] = Donation(transactionCount, donationTotal, _content, false);\n//   }\n\n//   function sendDonation (uint donationId) public payable aboveMinimum() {\n//     require(donations[donationId].recipientAddress != donations[donationId].donorAddress, 'cant send until recipient address has been set');\n//     // add donation amount to donations\n//       donations[donationId].donationTotal += msg.value;\n//   }\n\n//   //Modifiers\n//   //validations\n//   modifier aboveMinimum () {\n//       require( msg.value > 0 ether, \"donation must be more than 0 ether\");\n\n//   }\n\n// }\n",
  "sourcePath": "/Users/emilyasaro/Senior-Phase/capstone-repo/contracts/Payments.sol",
  "compiler": {
    "name": "solc",
    "version": "0.5.1+commit.c8a2cb62.Emscripten.clang"
  },
  "schemaVersion": "3.0.2",
  "updatedAt": "2021-06-06T16:25:33.362Z",
  "devdoc": {
    "methods": {}
  },
  "userdoc": {
    "methods": {}
  }
}