{
  "contractName": "PaymentSplitter",
  "abi": [
    {
      "inputs": [],
      "stateMutability": "nonpayable",
      "type": "constructor"
    },
    {
      "anonymous": false,
      "inputs": [
        {
          "indexed": false,
          "internalType": "address",
          "name": "account",
          "type": "address"
        },
        {
          "indexed": false,
          "internalType": "uint256",
          "name": "shares",
          "type": "uint256"
        }
      ],
      "name": "PayeeAdded",
      "type": "event"
    },
    {
      "anonymous": false,
      "inputs": [
        {
          "indexed": false,
          "internalType": "address",
          "name": "from",
          "type": "address"
        },
        {
          "indexed": false,
          "internalType": "uint256",
          "name": "amount",
          "type": "uint256"
        }
      ],
      "name": "PaymentReceived",
      "type": "event"
    },
    {
      "anonymous": false,
      "inputs": [
        {
          "indexed": false,
          "internalType": "address",
          "name": "to",
          "type": "address"
        },
        {
          "indexed": false,
          "internalType": "uint256",
          "name": "amount",
          "type": "uint256"
        }
      ],
      "name": "PaymentReleased",
      "type": "event"
    },
    {
      "inputs": [],
      "name": "receive",
      "outputs": [],
      "stateMutability": "payable",
      "type": "function"
    },
    {
      "inputs": [
        {
          "internalType": "address[]",
          "name": "payees",
          "type": "address[]"
        },
        {
          "internalType": "uint256[]",
          "name": "shares_",
          "type": "uint256[]"
        }
      ],
      "name": "DonationKickOff",
      "outputs": [],
      "stateMutability": "payable",
      "type": "function"
    },
    {
      "inputs": [],
      "name": "totalShares",
      "outputs": [
        {
          "internalType": "uint256",
          "name": "",
          "type": "uint256"
        }
      ],
      "stateMutability": "view",
      "type": "function"
    },
    {
      "inputs": [],
      "name": "totalReleased",
      "outputs": [
        {
          "internalType": "uint256",
          "name": "",
          "type": "uint256"
        }
      ],
      "stateMutability": "view",
      "type": "function"
    },
    {
      "inputs": [
        {
          "internalType": "address",
          "name": "account",
          "type": "address"
        }
      ],
      "name": "shares",
      "outputs": [
        {
          "internalType": "uint256",
          "name": "",
          "type": "uint256"
        }
      ],
      "stateMutability": "view",
      "type": "function"
    },
    {
      "inputs": [
        {
          "internalType": "address",
          "name": "account",
          "type": "address"
        }
      ],
      "name": "released",
      "outputs": [
        {
          "internalType": "uint256",
          "name": "",
          "type": "uint256"
        }
      ],
      "stateMutability": "view",
      "type": "function"
    },
    {
      "inputs": [
        {
          "internalType": "uint256",
          "name": "index",
          "type": "uint256"
        }
      ],
      "name": "payee",
      "outputs": [
        {
          "internalType": "address",
          "name": "",
          "type": "address"
        }
      ],
      "stateMutability": "view",
      "type": "function"
    },
    {
      "inputs": [
        {
          "internalType": "address payable",
          "name": "account",
          "type": "address"
        }
      ],
      "name": "release",
      "outputs": [],
      "stateMutability": "nonpayable",
      "type": "function"
    }
  ],
  "bytecode": "0x608060405234801561001057600080fd5b50611501806100206000396000f3fe60806040526004361061007b5760003560e01c80639852595c1161004e5780639852595c1461012d578063a3e76c0f1461016a578063ce7c2ac214610174578063e33b7de3146101b15761007b565b80631535046b14610080578063191655871461009c5780633a98ef39146100c55780638b83209b146100f0575b600080fd5b61009a60048036038101906100959190610bb5565b6101dc565b005b3480156100a857600080fd5b506100c360048036038101906100be9190610b8c565b610312565b005b3480156100d157600080fd5b506100da61057a565b6040516100e79190611157565b60405180910390f35b3480156100fc57600080fd5b5061011760048036038101906101129190610c21565b610583565b6040516101249190610fca565b60405180910390f35b34801561013957600080fd5b50610154600480360381019061014f9190610b63565b6105f1565b6040516101619190611157565b60405180910390f35b61017261063a565b005b34801561018057600080fd5b5061019b60048036038101906101969190610b63565b61067c565b6040516101a89190611157565b60405180910390f35b3480156101bd57600080fd5b506101c66106c5565b6040516101d39190611157565b60405180910390f35b8051825114610220576040517f08c379a0000000000000000000000000000000000000000000000000000000008152600401610217906110d7565b60405180910390fd5b6000825111610264576040517f08c379a000000000000000000000000000000000000000000000000000000000815260040161025b90611117565b60405180910390fd5b60005b825181101561030d576102fa8382815181106102ac577f4e487b7100000000000000000000000000000000000000000000000000000000600052603260045260246000fd5b60200260200101518383815181106102ed577f4e487b7100000000000000000000000000000000000000000000000000000000600052603260045260246000fd5b60200260200101516106cf565b8080610305906113b0565b915050610267565b505050565b6000600260008373ffffffffffffffffffffffffffffffffffffffff1673ffffffffffffffffffffffffffffffffffffffff1681526020019081526020016000205411610394576040517f08c379a000000000000000000000000000000000000000000000000000000000815260040161038b90611057565b60405180910390fd5b6000600154476103a49190611217565b90506000600360008473ffffffffffffffffffffffffffffffffffffffff1673ffffffffffffffffffffffffffffffffffffffff16815260200190815260200160002054600054600260008673ffffffffffffffffffffffffffffffffffffffff1673ffffffffffffffffffffffffffffffffffffffff1681526020019081526020016000205484610436919061129e565b610440919061126d565b61044a91906112f8565b90506000811415610490576040517f08c379a0000000000000000000000000000000000000000000000000000000008152600401610487906110b7565b60405180910390fd5b80600360008573ffffffffffffffffffffffffffffffffffffffff1673ffffffffffffffffffffffffffffffffffffffff168152602001908152602001600020546104db9190611217565b600360008573ffffffffffffffffffffffffffffffffffffffff1673ffffffffffffffffffffffffffffffffffffffff168152602001908152602001600020819055508060015461052c9190611217565b60018190555061053c83826108fc565b7fdf20fd1e76bc69d672e4814fafb2c449bba3a5369d8359adf9e05e6fde87b056838260405161056d929190610fe5565b60405180910390a1505050565b60008054905090565b6000600482815481106105bf577f4e487b7100000000000000000000000000000000000000000000000000000000600052603260045260246000fd5b9060005260206000200160009054906101000a900473ffffffffffffffffffffffffffffffffffffffff169050919050565b6000600360008373ffffffffffffffffffffffffffffffffffffffff1673ffffffffffffffffffffffffffffffffffffffff168152602001908152602001600020549050919050565b7f6ef95f06320e7a25a04a175ca677b7052bdd97131872c2192525a629f51be7706106636109f0565b3460405161067292919061100e565b60405180910390a1565b6000600260008373ffffffffffffffffffffffffffffffffffffffff1673ffffffffffffffffffffffffffffffffffffffff168152602001908152602001600020549050919050565b6000600154905090565b600073ffffffffffffffffffffffffffffffffffffffff168273ffffffffffffffffffffffffffffffffffffffff16141561073f576040517f08c379a000000000000000000000000000000000000000000000000000000000815260040161073690611037565b60405180910390fd5b60008111610782576040517f08c379a000000000000000000000000000000000000000000000000000000000815260040161077990611137565b60405180910390fd5b6000600260008473ffffffffffffffffffffffffffffffffffffffff1673ffffffffffffffffffffffffffffffffffffffff1681526020019081526020016000205414610804576040517f08c379a00000000000000000000000000000000000000000000000000000000081526004016107fb906110f7565b60405180910390fd5b6004829080600181540180825580915050600190039060005260206000200160009091909190916101000a81548173ffffffffffffffffffffffffffffffffffffffff021916908373ffffffffffffffffffffffffffffffffffffffff16021790555080600260008473ffffffffffffffffffffffffffffffffffffffff1673ffffffffffffffffffffffffffffffffffffffff16815260200190815260200160002081905550806000546108b99190611217565b6000819055507f40c340f65e17194d14ddddb073d3c9f888e3cb52b5aae0c6c7706b4fbc905fac82826040516108f092919061100e565b60405180910390a15050565b8047101561093f576040517f08c379a000000000000000000000000000000000000000000000000000000000815260040161093690611097565b60405180910390fd5b60008273ffffffffffffffffffffffffffffffffffffffff168260405161096590610fb5565b60006040518083038185875af1925050503d80600081146109a2576040519150601f19603f3d011682016040523d82523d6000602084013e6109a7565b606091505b50509050806109eb576040517f08c379a00000000000000000000000000000000000000000000000000000000081526004016109e290611077565b60405180910390fd5b505050565b600033905090565b6000610a0b610a06846111a3565b611172565b90508083825260208201905082856020860282011115610a2a57600080fd5b60005b85811015610a5a5781610a408882610ad0565b845260208401935060208301925050600181019050610a2d565b5050509392505050565b6000610a77610a72846111cf565b611172565b90508083825260208201905082856020860282011115610a9657600080fd5b60005b85811015610ac65781610aac8882610b4e565b845260208401935060208301925050600181019050610a99565b5050509392505050565b600081359050610adf81611486565b92915050565b600081359050610af48161149d565b92915050565b600082601f830112610b0b57600080fd5b8135610b1b8482602086016109f8565b91505092915050565b600082601f830112610b3557600080fd5b8135610b45848260208601610a64565b91505092915050565b600081359050610b5d816114b4565b92915050565b600060208284031215610b7557600080fd5b6000610b8384828501610ad0565b91505092915050565b600060208284031215610b9e57600080fd5b6000610bac84828501610ae5565b91505092915050565b60008060408385031215610bc857600080fd5b600083013567ffffffffffffffff811115610be257600080fd5b610bee85828601610afa565b925050602083013567ffffffffffffffff811115610c0b57600080fd5b610c1785828601610b24565b9150509250929050565b600060208284031215610c3357600080fd5b6000610c4184828501610b4e565b91505092915050565b610c538161137a565b82525050565b610c628161132c565b82525050565b6000610c75602c83611206565b91507f5061796d656e7453706c69747465723a206163636f756e74206973207468652060008301527f7a65726f206164647265737300000000000000000000000000000000000000006020830152604082019050919050565b6000610cdb602683611206565b91507f5061796d656e7453706c69747465723a206163636f756e7420686173206e6f2060008301527f73686172657300000000000000000000000000000000000000000000000000006020830152604082019050919050565b6000610d41603a83611206565b91507f416464726573733a20756e61626c6520746f2073656e642076616c75652c207260008301527f6563697069656e74206d617920686176652072657665727465640000000000006020830152604082019050919050565b6000610da7601d83611206565b91507f416464726573733a20696e73756666696369656e742062616c616e63650000006000830152602082019050919050565b6000610de7602b83611206565b91507f5061796d656e7453706c69747465723a206163636f756e74206973206e6f742060008301527f647565207061796d656e740000000000000000000000000000000000000000006020830152604082019050919050565b6000610e4d603283611206565b91507f5061796d656e7453706c69747465723a2070617965657320616e64207368617260008301527f6573206c656e677468206d69736d6174636800000000000000000000000000006020830152604082019050919050565b6000610eb36000836111fb565b9150600082019050919050565b6000610ecd602b83611206565b91507f5061796d656e7453706c69747465723a206163636f756e7420616c726561647960008301527f20686173207368617265730000000000000000000000000000000000000000006020830152604082019050919050565b6000610f33601a83611206565b91507f5061796d656e7453706c69747465723a206e6f207061796565730000000000006000830152602082019050919050565b6000610f73601d83611206565b91507f5061796d656e7453706c69747465723a207368617265732061726520300000006000830152602082019050919050565b610faf81611370565b82525050565b6000610fc082610ea6565b9150819050919050565b6000602082019050610fdf6000830184610c59565b92915050565b6000604082019050610ffa6000830185610c4a565b6110076020830184610fa6565b9392505050565b60006040820190506110236000830185610c59565b6110306020830184610fa6565b9392505050565b6000602082019050818103600083015261105081610c68565b9050919050565b6000602082019050818103600083015261107081610cce565b9050919050565b6000602082019050818103600083015261109081610d34565b9050919050565b600060208201905081810360008301526110b081610d9a565b9050919050565b600060208201905081810360008301526110d081610dda565b9050919050565b600060208201905081810360008301526110f081610e40565b9050919050565b6000602082019050818103600083015261111081610ec0565b9050919050565b6000602082019050818103600083015261113081610f26565b9050919050565b6000602082019050818103600083015261115081610f66565b9050919050565b600060208201905061116c6000830184610fa6565b92915050565b6000604051905081810181811067ffffffffffffffff8211171561119957611198611457565b5b8060405250919050565b600067ffffffffffffffff8211156111be576111bd611457565b5b602082029050602081019050919050565b600067ffffffffffffffff8211156111ea576111e9611457565b5b602082029050602081019050919050565b600081905092915050565b600082825260208201905092915050565b600061122282611370565b915061122d83611370565b9250827fffffffffffffffffffffffffffffffffffffffffffffffffffffffffffffffff03821115611262576112616113f9565b5b828201905092915050565b600061127882611370565b915061128383611370565b92508261129357611292611428565b5b828204905092915050565b60006112a982611370565b91506112b483611370565b9250817fffffffffffffffffffffffffffffffffffffffffffffffffffffffffffffffff04831182151516156112ed576112ec6113f9565b5b828202905092915050565b600061130382611370565b915061130e83611370565b925082821015611321576113206113f9565b5b828203905092915050565b600061133782611350565b9050919050565b600061134982611350565b9050919050565b600073ffffffffffffffffffffffffffffffffffffffff82169050919050565b6000819050919050565b60006113858261138c565b9050919050565b60006113978261139e565b9050919050565b60006113a982611350565b9050919050565b60006113bb82611370565b91507fffffffffffffffffffffffffffffffffffffffffffffffffffffffffffffffff8214156113ee576113ed6113f9565b5b600182019050919050565b7f4e487b7100000000000000000000000000000000000000000000000000000000600052601160045260246000fd5b7f4e487b7100000000000000000000000000000000000000000000000000000000600052601260045260246000fd5b7f4e487b7100000000000000000000000000000000000000000000000000000000600052604160045260246000fd5b61148f8161132c565b811461149a57600080fd5b50565b6114a68161133e565b81146114b157600080fd5b50565b6114bd81611370565b81146114c857600080fd5b5056fea264697066735822122094ecc36440aa698f75beb5d9d15d79ba8cf5fc8505065d1858c9291a85dccb3864736f6c63430008000033",
  "immutableReferences": {},
  "source": "// SPDX-License-Identifier: MIT\npragma solidity ^0.8.0;\nimport \"./Address.sol\";\nimport \"./Context.sol\";\nimport \"./SafeMath.sol\";\n/**\n * @title PaymentSplitter\n * @dev This contract allows to split Ether payments among a group of accounts. The sender does not need to be aware\n * that the Ether will be split in this way, since it is handled transparently by the contract.\n *\n * The split can be in equal parts or in any other arbitrary proportion. The way this is specified is by assigning each\n * account to a number of shares. Of all the Ether that this contract receives, each account will then be able to claim\n * an amount proportional to the percentage of total shares they were assigned.\n *\n * `PaymentSplitter` follows a _pull payment_ model. This means that payments are not automatically forwarded to the\n * accounts but kept in this contract, and the actual transfer is triggered as a separate step by calling the {release}\n * function.\n */\ncontract PaymentSplitter is Context {\n    event PayeeAdded(address account, uint256 shares);\n    event PaymentReleased(address to, uint256 amount);\n    event PaymentReceived(address from, uint256 amount);\n    //address public owner;\n    uint256 private _totalShares;\n    uint256 private _totalReleased;\n    mapping(address => uint256) private _shares;\n    mapping(address => uint256) private _released;\n    address[] private _payees;\n    /**\n     * @dev Creates an instance of `PaymentSplitter` where each account in `payees` is assigned the number of shares at\n     * the matching position in the `shares` array.\n     *\n     * All addresses in `payees` must be non-zero. Both arrays must have the same non-zero length, and there must be no\n     * duplicates in `payees`.\n     */\n     // sets the owner of the contract (admin) -->  msg.sender is the person currently connecting the contract\n       //\n     // is there logic we won't want to be called by anyone else?\n        // abi is public, that gets exposed when you deploy\n     // user interface is not the only way to interact with the contract\n     // contract is its own api / totally separate application\n     // sending msg to the contract w/ some data is like sending a get request, msg.sender is like a request\n\n// if we can handle multiple donation kickoffs, then we only need one contract instance.\n    constructor ()  {\n        // owner = msg.sender;\n        // solhint-disable-next-line max-line-length\n        // require(payees.length == shares_.length, \"PaymentSplitter: payees and shares length mismatch\");\n        // require(payees.length > 0, \"PaymentSplitter: no payees\");\n        // for (uint256 i = 0; i < payees.length; i++) {\n        //     _addPayee(payees[i], shares_[i]);\n        // }\n    }\n    /**\n     * @dev The Ether received will be logged with {PaymentReceived} events. Note that these events are not fully\n     * reliable: it's possible for a contract to receive Ether without triggering this function. This only affects the\n     * reliability of the events, and not the actual splitting of Ether.\n     *\n     * To learn more about this see the Solidity documentation for\n     * https://solidity.readthedocs.io/en/latest/contracts.html#fallback-function[fallback\n     * functions].\n     */\n    function receive () external payable virtual {\n        emit PaymentReceived(_msgSender(), msg.value);\n    }\n\n    function DonationKickOff (address[] memory payees, uint256[] memory shares_) public payable {\n        // solhint-disable-next-line max-line-length\n        require(payees.length == shares_.length, \"PaymentSplitter: payees and shares length mismatch\");\n        require(payees.length > 0, \"PaymentSplitter: no payees\");\n        for (uint256 i = 0; i < payees.length; i++) {\n            _addPayee(payees[i], shares_[i]);\n        }\n    }\n     /**\n     * @dev Getter for the total shares held by payees.\n     */\n    function totalShares() public view returns (uint256) {\n        return _totalShares;\n    }\n    /**\n     * @dev Getter for the total amount of Ether already released.\n     */\n    function totalReleased() public view returns (uint256) {\n        return _totalReleased;\n    }\n    /**\n     * @dev Getter for the amount of shares held by an account.\n     */\n    function shares(address account) public view returns (uint256) {\n        return _shares[account];\n    }\n    /**\n     * @dev Getter for the amount of Ether already released to a payee.\n     */\n    function released(address account) public view returns (uint256) {\n        return _released[account];\n    }\n    /**\n     * @dev Getter for the address of the payee number `index`.\n     */\n    function payee(uint256 index) public view returns (address) {\n        return _payees[index];\n    }\n    /**\n     * @dev Triggers a transfer to `account` of the amount of Ether they are owed, according to their percentage of the\n     * total shares and their previous withdrawals.\n     */\n    function release(address payable account) public virtual {\n        require(_shares[account] > 0, \"PaymentSplitter: account has no shares\");\n        uint256 totalReceived = address(this).balance + _totalReleased;\n        uint256 payment = totalReceived * _shares[account] / _totalShares - _released[account];\n        require(payment != 0, \"PaymentSplitter: account is not due payment\");\n        _released[account] = _released[account] + payment;\n        _totalReleased = _totalReleased + payment;\n        Address.sendValue(account, payment);\n        emit PaymentReleased(account, payment);\n    }\n    /**\n     * @dev Add a new payee to the contract.\n     * @param account The address of the payee to add.\n     * @param shares_ The number of shares owned by the payee.\n     */\n    function _addPayee(address account, uint256 shares_) private {\n        require(account != address(0), \"PaymentSplitter: account is the zero address\");\n        require(shares_ > 0, \"PaymentSplitter: shares are 0\");\n        require(_shares[account] == 0, \"PaymentSplitter: account already has shares\");\n        _payees.push(account);\n        _shares[account] = shares_;\n        _totalShares = _totalShares + shares_;\n        emit PayeeAdded(account, shares_);\n    }\n}\n",
  "sourcePath": "/Users/emilyasaro/Senior-Phase/capstone-repo/contracts/PaymentSplitter.sol",
  "compiler": {
    "name": "solc",
    "version": "0.8.0+commit.c7dfd78e.Emscripten.clang"
  },
  "schemaVersion": "3.4.1",
  "updatedAt": "2021-06-09T01:51:55.329Z",
  "devdoc": {
    "details": "This contract allows to split Ether payments among a group of accounts. The sender does not need to be aware that the Ether will be split in this way, since it is handled transparently by the contract. The split can be in equal parts or in any other arbitrary proportion. The way this is specified is by assigning each account to a number of shares. Of all the Ether that this contract receives, each account will then be able to claim an amount proportional to the percentage of total shares they were assigned. `PaymentSplitter` follows a _pull payment_ model. This means that payments are not automatically forwarded to the accounts but kept in this contract, and the actual transfer is triggered as a separate step by calling the {release} function.",
    "kind": "dev",
    "methods": {
      "constructor": {
        "details": "Creates an instance of `PaymentSplitter` where each account in `payees` is assigned the number of shares at the matching position in the `shares` array. All addresses in `payees` must be non-zero. Both arrays must have the same non-zero length, and there must be no duplicates in `payees`."
      },
      "payee(uint256)": {
        "details": "Getter for the address of the payee number `index`."
      },
      "receive()": {
        "details": "The Ether received will be logged with {PaymentReceived} events. Note that these events are not fully reliable: it's possible for a contract to receive Ether without triggering this function. This only affects the reliability of the events, and not the actual splitting of Ether. To learn more about this see the Solidity documentation for https://solidity.readthedocs.io/en/latest/contracts.html#fallback-function[fallback functions]."
      },
      "release(address)": {
        "details": "Triggers a transfer to `account` of the amount of Ether they are owed, according to their percentage of the total shares and their previous withdrawals."
      },
      "released(address)": {
        "details": "Getter for the amount of Ether already released to a payee."
      },
      "shares(address)": {
        "details": "Getter for the amount of shares held by an account."
      },
      "totalReleased()": {
        "details": "Getter for the total amount of Ether already released."
      },
      "totalShares()": {
        "details": "Getter for the total shares held by payees."
      }
    },
    "title": "PaymentSplitter",
    "version": 1
  },
  "userdoc": {
    "kind": "user",
    "methods": {},
    "version": 1
  }
}