{
  "contractName": "Payments",
  "abi": [
    {
      "constant": true,
      "inputs": [],
      "name": "transactionCount",
      "outputs": [
        {
          "name": "",
          "type": "uint256"
        }
      ],
      "payable": false,
      "stateMutability": "view",
      "type": "function",
      "signature": "0xb77bf600"
    }
  ],
  "bytecode": "0x608060405260008055348015601357600080fd5b506098806100226000396000f3fe6080604052600436106039576000357c010000000000000000000000000000000000000000000000000000000090048063b77bf60014603e575b600080fd5b348015604957600080fd5b5060506066565b6040518082815260200191505060405180910390f35b6000548156fea165627a7a72305820fdb6e24cccf08828533ed75606c8ccdf1de1774099af0aee17c835a1b502cb6e0029",
  "source": "pragma solidity ^0.5.1;\n\ncontract Payments {\n  // state variable stored on blockchain\n   uint public transactionCount = 0;\n}\n",
  "sourcePath": "/Users/avernon/Fullstack/Assignments/capstone-repo/contracts/Payments.sol",
  "compiler": {
    "name": "solc",
    "version": "0.5.1+commit.c8a2cb62.Emscripten.clang"
  },
  "schemaVersion": "3.0.2",
  "updatedAt": "2021-06-06T16:25:55.645Z",
  "devdoc": {
    "methods": {}
  },
  "userdoc": {
    "methods": {}
  }
}